:020000040000FA
:10000000A0520020D92200003D750000C52200004A
:10001000C5220000C5220000C5220000C522000044
:100020000000000000000000000000003D2400006F
:10003000C522000000000000A9230000C522000026
:1000400051260000512600005126000051260000D4
:1000500051260000512600005126000051260000C4
:1000600051260000512600005126000051260000B4
:1000700051260000512600005126000051260000A4
:100080005126000051260000512600005126000094
:100090005126000051260000512600005126000084
:1000A0005126000051260000512600005126000074
:1000B0005126000051260000512600005126000064
:1000C0005126000051260000512600005126000054
:1000D0005126000051260000512600005126000044
:1000E0005126000051260000512600005126000034
:1000F0005126000051260000512600005126000024
:100100005126000051260000512600005126000013
:100110005126000051260000512600005126000003
:1001200051260000512600005126000051260000F3
:1001300051260000512600005126000051260000E3
:100140005126000053B94AB9002908BF00281CBF36
:100150004FF0FF314FF0FF3000F00CB8ADF1080C5C
:100160006DE904CE00F008F8DDF804E0DDE90223D3
:1001700004B07047704700BF2DE9F04786468C46B3
:100180000846089E154674461946002B40F0C1806B
:100190008542B2FA82F245D94AB1C2F1200300FA8F
:1001A00002FC954094402EFA03F343EA0C0C4FEA0C
:1001B000154EA8B2230CBCFBFEF80EFB18CC08FBB6
:1001C00000F943EA0C43994528D9EB1808F1FF37A9
:1001D00004D2994502D9A8F102072B44A3EB0903E5
:1001E000A4B2B3FBFEFC0EFB1C330CFB00F044EA94
:1001F0000344A04214D92C190CF1FF3304D2A042BD
:1002000002D9ACF102032C44241A43EA07401EB180
:10021000D440002334607360BDE8F0874746DDE7D3
:100220006346F1E792BB431B01214FEA154EAFB283
:10023000200CB3FBFEFC0EFB1C330CFB07F840EA62
:100240000343984561D9EB180CF1FF3004D298456F
:1002500002D9ACF102002B44A3EB0803A4B2B3FB18
:10026000FEFC0EFB1C330CFB07F744EA0344A742D9
:100270004DD92C190CF1FF3304D2A74202D9ACF1AD
:1002800002032C44E41B43EA0040C0E7C2F1200310
:100290009540944020FA03F12EFA03F34FEA154EED
:1002A0009040AFB20343B1FBFEFC0EFB1C10190CD7
:1002B0000CFB07F841EA0041884522D969180CF186
:1002C000FF3004D2884502D9ACF102002944A1EBE9
:1002D00008019BB2B1FBFEFC0EFB1C110CFB07F7E7
:1002E00043EA01439F420ED9EB180CF1FF3104D2CF
:1002F0009F4202D9ACF102012B44DB1B41EA0041D1
:1003000093E76046E3E76146F7E76046A4E76346A4
:10031000B8E7834206D916B9002108467CE7C6E94A
:1003200000E0F9E7B3FA83F78FB9834201D372454E
:1003300008D8BEEB020460EB030301209C461EB903
:10034000002169E73846FAE7C6E9004CF8E7C7F14B
:10035000200CBB400EFA07F522FA0CF42EFA0CF131
:10036000BA401C4320FA0CF3B8404FEA1449014349
:100370001FFA84FEB3FBF9F809FB18300B0C08FBDD
:100380000EFA43EA00439A4540D9E31808F1FF30DA
:1003900004D29A4502D9A8F102002344A3EB0A0330
:1003A00089B2B3FBF9F809FB183308FB0EFE41EAEA
:1003B00003418E452CD9611808F1FF3304D28E45D4
:1003C00002D9A8F10203214443EA0040A1EB0E0147
:1003D000A0FB02984145CE46434602D306D14D4587
:1003E00004D20138B9EB020E68EB0403002EA7D04B
:1003F000B5EB0E0261EB030101FA0CFC22FA07F3E4
:10040000F9404CEA0303C6E9003199E74046C5E7E5
:100410004346D9E730B53B4B3B4A4921C3F8002658
:100420003A48C3F8042687B0C3F80826C3F80C2658
:10043000C3F81026C3F81426C3F81826C3F81C26E0
:1004400006F0CEFF06F066FB00F0E8FA054603A8CA
:1004500000F088FD0446284600F0F0FA2C4B1B689B
:10046000A34205D045212B4806F0BAFF06F0B0FCA8
:100470004921059A284806F0B3FF039927484B7D88
:100480000A7DC98A0091492106F0AAFF4921244822
:1004900006F0A6FF4FF48031002003F075F8044603
:1004A00020B145211F4806F09BFFFEE702A99DF8F9
:1004B000100000F03DF8029A059B1B4D1344039A6F
:1004C000128913442B6003F047F801F0A5F801F0FE
:1004D00075F801F08FF884F30B8884F30A882B6891
:1004E0001B6883F3088884F31488BFF36F8FBFF30E
:1004F0006F8F2B685B68984745210C4806F070FFAA
:10050000FEE700BF008001503546526E06880000AD
:10051000080000201F880000428800007188000049
:100520008F880000B4880000A0030020E788000046
:10053000024608B538B105480023452106F050FFB2
:100540006FF0150008BD0860FCE700BF0A890000D5
:1005500021B1012906D06FF015007047044B53F804
:1005600030007047024B03EBC0035868704700BF70
:10057000388400002DE9F04F9B468B4BDBB01546CD
:10058000DDE965891E6807460C4600F0E1FF01229F
:10059000864B3AA8C3F8002505F0D8F9B8F1000F4A
:1005A00007D0B9F1000F04DD4A4641463AA806F0EB
:1005B000FCFD4FF0000823896289D4F80CA0134495
:1005C0009A44C2455FD80DA93AA805F031FA002235
:1005D000764BC3F80025C3F80025679B23B1202282
:1005E00018460DA906F0F3FF00232A460093214682
:1005F0004FF6FF7307A806F08EFA8046002853D105
:10060000294638460C9C06F0A3FBA0424CD34FF081
:10061000FF34DFF8A4B1DFF894A10DF1160305AAA9
:1006200006A907A806F0C5FA00283DDB40F0B28015
:10063000069907A806F009FB50B94FF6FF71BDF8FF
:1006400016005B4A32F8023B8B422DD09842F9D11A
:10065000BDF81670102F31D0222F78D0012FDCD1A9
:10066000BDF81430202B1FD8284606993AAA06F068
:10067000D2FE0446C0B99DF81430202B02933CD919
:100680004FF0FF34C9E7649BAAEB0809994528BFDE
:1006900099465A464B464146284606F0BCFE30B1C4
:1006A0000022424BC3F800253F4B1E6875E04A46C6
:1006B00059463AA806F079FDC84482E7BDF814709F
:1006C000202FF1D13B46284606993AAA06F0A3FE10
:1006D0000028E9D100F0A2F93A4680463AA90DA8CF
:1006E00000F0F6F80746404600F0A8F9DBF80030C5
:1006F000BB42D9D14FF001088FE72E4ADFF8BC90FA
:1007000013680393039B9C42BADA00F021FFCAF8F6
:1007100000751DA805F01AF9D9F804201DA8126863
:1007200059F8081B06F041FD15A91DA805F080F930
:100730000022CAF80025CAF80025029A3AA915A88D
:1007400006F035FF00283FF468AF0134DAE7631C98
:100750003FF463AF174B1B689C4291DABDF814302D
:10076000802BA1D8284606993AAA06F054FE002804
:100770009AD100F053F9E4B207462021BDF81430B5
:100780003AAA00940DA800F01BF80646384600F07F
:1007900055F975E7B8F1000F86D000F047F93046FB
:1007A0005BB0BDE8F08F00BF040000200000845063
:1007B000D887000040840000080000204484000026
:1007C0002DE9F04796B017461E469DF878203B4B22
:1007D000814653F8321003EBC2035B68019118683D
:1007E000DFF8E8800144302302AA01A8D8F80050BD
:1007F00006F069FC002858D1DDE901431C4421467C
:1008000006AB03AA01A806F086FC00284DD1049A85
:10081000072A4AD12A49059806F0C9FE002844D182
:10082000079A082A41D12749089806F0C0FE0028F7
:100830003BD1214602AA01A806F059FCA8BBDDE97C
:1008400001A30AEB030294422FD1412B2DD13E4448
:100850003023314603AA02A8029706F034FC1A4D51
:10086000E0B9DDE9023213449E4217D3324602A9B1
:1008700006A806F0F8F988B9324602A90EA806F0D3
:10088000F2F958B99AF80030042B07D120234846D2
:1008900006AA0AF1010100F073FE60B1D8F8003039
:1008A0002D68AB4218BFD8F8005000F0BFF82846BA
:1008B00016B0BDE8F0872B68F2E700BF4484000063
:1008C0003989000030890000080000200400002061
:1008D00070B5094B04461D680023934205D1074BB0
:1008E0001D6800F0A3F8284670BDE65CC85C86422F
:1008F000F7D10133F1E700BF040000200800002019
:10090000094A40000B7852F820108B4209D0013080
:1009100052F82000834214BF4FF0FF304FF4407074
:1009200070474FF4407070474C8400001FB5582347
:1009300003FB0100046A1023A1686A4620461039AF
:1009400006F069FD034640B122784521064806F0CD
:1009500047FD0024204604B010BD1022684603491C
:1009600006F025FEF6E700BF41890000F68700008B
:100970002DE9F3471E46836805468B420C46174611
:1009800043D95B1A934240D386B36A4606F0A7F870
:1009900000283CDB013FDDF800803C441D4FDFF8C0
:1009A00078906A462146284606F099F800282EDB02
:1009B000DDE9004A28465246214606F056FD002849
:1009C00025DBC7F80096C7F80496C7F80896C7F85D
:1009D0000C96C7F81096C7F81496C7F81896C7F87B
:1009E0001C966EB1444512D9013CDAE7511E2144F0
:1009F0006A4606F074F8002809DBDDF80080CDE7D0
:100A00005444A04503D30134CBE74FF0FF3002B08C
:100A1000BDE8F087008001503546526E024B1868E1
:100A2000421C1A60704700BFA4030020024A1368EA
:100A3000013B1360704700BFA4030020034B1B68F9
:100A4000834201D006F0C4B9704700BFA403002060
:100A500073B50D46002104462846CDE9001106F085
:100A60000BFA28B323681A4EB34203D1204601AAD9
:100A700006F070F9E36AB34204D16A4601212046C8
:100A800006F068F9DDE90032934288BF0193019BCB
:100A9000AB60019A2946204600F064FC0D4B1A68B1
:100AA000002A03DD57210C4806F09AFC02B070BD05
:100AB00001462046FFF73AFF064605F1080106F019
:100AC0002AF9AB683046019306F0A4FCE1E700BFC9
:100AD0003DB8F396081800206D8900002DE9FF4706
:100AE0002C2606FB0106D6F820A0044650461746E1
:100AF0000D4606F0D6FC731EF21C13F8011F81424E
:100B000026D19A42F9D1B5B15146204606F0F7F9FF
:100B1000FB79042B0AD12046216A06F0F0F902463F
:100B200048B949212B4806F05BFC04E0002002F0A4
:100B3000BFFD0428EFD0284B1C68FFF777FF204645
:100B400004B0BDE8F087254B1C6835E0244A3EE040
:100B50002C236B43E1180869C206D4D4E258214B18
:100B60009A42F0D1CA680B899B18ECD24A89D218F4
:100B7000E9D2DAF808309A42E5D240F60C6707402D
:100B8000E1D1FFF74BFF8046FFF748FF4FF480733A
:100B900081465246314600932046134BCDE90277F9
:100BA0000197FFF7E7FC04464846FFF747FFFFF7CA
:100BB0003DFF4046FFF742FF0C4B1B68A342BCD0F1
:100BC000002DC3D00121504606F094F9084A452172
:100BD0000848A8E7AE8900000000002004000020BB
:100BE0009C8900003DB8F3965820002008000020A2
:100BF000A4890000ED8900002DE9F84F8846914650
:100C00009A460026DFF870B0194C1A4D0B9B9E4295
:100C100001D300200FE00B9B40469F1BB7F5806F70
:100C200028BF4FF48067144A3B4606EB0A0106F0E2
:100C3000F2FB10B10120BDE8F88F0A993B465A46F5
:100C40004846711806F0FCFB0028F3D1C4F80056A2
:100C50003E44C4F80456C4F80856C4F80C56C4F808
:100C60001056C4F81456C4F81856C4F81C56CDE7EC
:100C7000008001503546526EA80300202DE9F04156
:100C80000E460021AE4B0446436203F5006388B074
:100C900003650846FFF75CFC04F120010546C0B27D
:100CA00001F08AF848B100232A46452101900093BB
:100CB000A44806F095FB06F08BF801210020FFF711
:100CC00047FC04F14C010546C0B201F075F850B183
:100CD00001232A464521019000939A48002306F0FB
:100CE0007FFB06F075F8204606F09BF8054668B9CC
:100CF00000222046114606F07EF8054608B3002281
:100D00005721914806F06CFB0123A1E04FF480725B
:100D100057218E4806F064FB01239D4284F8583029
:100D2000E6D194F85830042B8DF8173000F29380F8
:100D3000012B00F2978000F0AA80FF2384F858303E
:100D4000A5E0204600F01AFA0028DDD004A806F03D
:100D50008AF80146204606F006F918B12A465721BE
:100D60007B48CFE704A806F087F880F0010104AAC9
:100D70002046C9B206F03FF802460028BFD104A8B9
:100D800006F07AF8054660BB204604A9FFF760FE2E
:100D90009DF8173084F85830033B012B06D82846BD
:100DA00000F010F910B1FF2384F858309DF8173087
:100DB000023B022B0BD8002000F0EEF838B1FF23E5
:100DC00084F858304521634806F00AFBFEE794F8A2
:100DD0005830FF2BF6D000222046114606F00BF8C3
:100DE00092E79DF81770012F1FD1104602F060FCAA
:100DF000831E022B054615D8FFF710FE39468046A4
:100E000004AA2046FFF76AFE07464046FFF716FE93
:100E1000514B1B689F4205D0504B1D68AF4214BF19
:100E20000525012584F858507BE7FFF7F7FD0121E0
:100E3000074604AA2046FFF751FE05463846FFF74D
:100E4000FDFD454B1B689D4214BF05239DF81730DF
:100E500084F8583065E7052B7FF46FAF002000F071
:100E6000B1F811E0204604A9FFF7F2FD94F85830DC
:100E7000DA1E012A34D8002000F0A4F800287FF4FC
:100E80005CAF002000F088F800287FF456AF94F89B
:100E90005830FF2B05D145212E4806F0A1FA05F068
:100EA00097FF002294F858302D4F012B03921AD04F
:100EB0001146204605F09FFFA8B13D681022002191
:100EC0000DEB020006F08EFBE06C06F0A3FA206A40
:100ED00006F0A0FAFFF7AAFD284608B0BDE8F081A9
:100EE000022BD4D1CDE7FFF799FD002280461146B1
:100EF0002046FFF7F3FD05464046FFF79FFDDFF86C
:100F00005880D8F800309D42D7D13B689D42D4D05C
:100F1000124B1B689D42D0D0039B01330393039B6C
:100F2000012B01D005F054FF206A05F0D6FD307189
:100F3000236A5B683460D8F80050B360BEE700BF36
:100F4000A8070020158A0000A48A0000628A000019
:100F5000D08A0000FA8A000008000020000000206B
:100F60000400002070B50B4E04466022002130467C
:100F700006F038FBFFF752FD214605463046FFF7E5
:100F80007DFE04462846FFF759FDFFF74FFD20463A
:100F900070BD00BFA817002013B5094B01A913F8B5
:100FA000300000F009FF48B9019806F0CDFD044675
:100FB000019806F02FFA204602B010BD0124FAE78E
:100FC000548400001FB50F4B01A913F8300000F046
:100FD000F3FEA8B9019802A902F014FB044668B90F
:100FE0009DF80B30032B03D1019806F07BFD0446DE
:100FF000019806F00FFA204604B010BD0124F7E76F
:101000000124F8E7548400002DE9F34106460C461C
:1010100017461D460BB9002121E0184605F02CFFAC
:1010200001460028F7D13046FFF780FC18B90120AF
:1010300002B0BDE8F08101A905F06DFE0028F6D1EF
:101040000199304605F0C0FF736A59686B79012B2E
:1010500018D1002CDFD12B68834298BF00212C23AC
:1010600003FB04663A462023306A06F0D4F90028D0
:10107000DDD1002DDCD038680D4BC01A18BF4FF001
:10108000FF30D5E7022BC6D12B68012B05D983424F
:10109000C1D8B4FA84F46409BDE7BCD1002CDED019
:1010A000012CB8D12C79023C18BF0124B3E700BF52
:1010B0003DB8F3962DE9F04F07460C4685B0014642
:1010C00000201646FFF71CFC051E51DB3846E46D78
:1010D00005F016FE5FFA84F94FF0000A4FF0010B9D
:1010E0004FF0FF346B1E09FB03089DB9BAF1010FE5
:1010F00003DD4521204806F073F9631C06D0FF2C60
:101100002ADC40F2011301343460B380284605B074
:10111000BDE8F08F6B1E00934146012338460DF168
:101120000F0206F078F9031E019323DB01223846F3
:101130000DF10F0106F071FC019B40B15B4501D040
:101140000AF1010A9B46009DA8EB0908CDE7B4F11E
:10115000FF3F08BF2C46F5E70223A4F580747371A6
:10116000631004F001040133013433603471CDE7BE
:101170000725CBE70125C9E7068B0000F8B5866A8D
:10118000456D0446AE4208D06B1CB34205D05721D2
:10119000174806F025F90020F8BDB6F5807F19D96B
:1011A00057211448F5E7626A02EBC3025768226DC3
:1011B00002EBC3025268BA4202D057210E48E8E758
:1011C00001339D42EFD1204606F00AF828B9572195
:1011D0000A48DEE700231F46F3E7AE4205D9636AFB
:1011E00003EBC5035B68BB42E7D10120D4E700BF36
:1011F000298B0000618B0000908B0000BC8B0000ED
:1012000010B588B0044604A9006A02F0FBF99DF805
:101210001020012A40D0254B2549032A08BF0B4640
:101220009DF81320492102929DF812202148019235
:101230009DF811200092204A06F0D2F8E06C06A931
:1012400002F0E0F99DF81820012A27D0174B184921
:10125000032A08BF0B469DF81B20492102929DF8E6
:101260001A20144801929DF819200092134A06F0A2
:10127000B7F89DF81030012B12D19DF81230032BD6
:101280000ED19DF81830012B0AD00D48492106F0E7
:10129000A7F8022008B010BD0A4BC1E7094BDAE7F6
:1012A0000948492106F09CF80020F3E7F58B00007F
:1012B000FE8B0000128C0000048C0000538C000098
:1012C000638C0000F98B0000828C000070B54B68C5
:1012D00014461E4A03F0FF23934206460D4686B08D
:1012E0002FD10B68012B2CD1204604A902F08AF9DA
:1012F0009DF81020012A26D0154B1649032A08BF55
:101300000B469DF81320492102929DF812201248A5
:1013100001929DF811200092104A06F061F89DF8A4
:101320001030032B0DD12146304605F0E8FD204654
:1013300006F0D8FB2046A96805F0FBFC204602F029
:1013400041F906B070BD064BDBE700BF00010004A9
:10135000F58B0000FE8B0000128C0000538C000007
:10136000F98B00002DE9F04F1646054687B00C4674
:101370006E48492106F034F83146284605F024FE2F
:101380006B6A824620465E6805F076FDE8B1E86D3E
:1013900005F095FC0023AF6A013F3344984201D920
:1013A000013FFAE7BA4510D35721614806F018F813
:1013B00007FB06F357210AFB06625E4806F010F8A9
:1013C0000123E37107B0BDE8F08FEB6C21461A46AC
:1013D000284603932F6AFFF779FF6379012B4AD1DF
:1013E000D046DFF854B141E02268C2F10103534412
:1013F000984539D86B6A012A196853F8380003EB0D
:10140000C80353F8083CA0EB0109A3EB01030493C4
:101410000FD1E368022B08D03946284605F06FFD4E
:1014200022463946284605F07FFD2846039905F0F7
:1014300066FD0023324649463846FFF799FA049B79
:101440003A4639462846CDE90096FFF7D5FB2146B6
:10145000284605F01EFD23680133236020B1DBF828
:1014600000300133CBF8003008F1FF38B8F1000F3D
:10147000BAD10123236002234FF001086371C245F2
:10148000A0D3236898454ED36A6A4FEAC80352F83E
:101490003810083BD2F800B00491D1582A6DD058CA
:1014A0001368A0EB03092379012B3AD1A1EB0B01BF
:1014B0000023324638460591FFF75AFA05994B4604
:1014C0003A460091284603990196FFF795FB21467D
:1014D000284605F0DEFC0223237118B1164A136872
:1014E000013313600023324649460398FFF740FA60
:1014F000049B3946A3EB0B03039A2846CDE90096DB
:10150000FFF77AFB2146284605F0C3FC2368013328
:1015100023600123237130B1074A1368013313603C
:1015200001E0022BDED008F10108A8E7998C000049
:10153000C28C0000F18C0000081800200A4619B186
:10154000024B00211B681847704700BF0C000020A9
:1015500070B5094D2B780BB1002070BD0126074CEA
:10156000C4F8006504F094FA18B92E70C4F80005A8
:10157000F2E74FF0FF30F0E75821002000008450E0
:101580002DE9F041ACB01F4606460C461546FFF764
:10159000DFFF0123DFF820802A46C8F80035214606
:1015A0003346009703A806F055FD0023C8F8003520
:1015B0002CB0BDE8F08100BF00008450BFF36F8FF6
:1015C00072B600234FF0FF30094A03F120010133C6
:1015D000102B42F82100F8D100234FF0FF30044ACD
:1015E00003F160010133102B42F82100F8D170475C
:1015F00000E100E0002318460649D1F89020C2F32C
:101600000722934200DB7047C1F89830C1F8A00070
:101610000133F6E700ED00E04FF0FF3301212DE943
:10162000F04300253A4A3B4E51603B4FC2F84833E5
:10163000DFF8EC80C2F8083302F58052516085B0C3
:10164000C2F84833C2F808334FF0FF3956F8044B5C
:1016500044F30730C4F8089300F010FF01236360DF
:1016600000236846C4F84C31D4F84C21C4F810313A
:10167000D4F81021C4F84431D4F84421C4F800351A
:10168000D4F80C250092D4F814250192D4F808253A
:101690000292D4F81025C4F80C950392C4F814955E
:1016A000C4F80895C4F8109550F8041B4A1C0DD0D6
:1016B00001F01F02490926D107EB8202D2F800127D
:1016C00001EA080141F00201C2F800120133042BC3
:1016D000EAD180220021A01805F084FF8022002199
:1016E00004F5C07005F07EFF5DB14FF0FF330B4A8B
:1016F000C2F808354FF05022C2F8083305B0BDE8F3
:10170000F0830125A0E70023803253F82230FFDE6A
:10171000004001506084000000258450007001509A
:10172000F0F8FCFF014B1B68184700BF10000020B9
:10173000014B1860704700BF1000002007B50B4632
:10174000002102460091034800F006F803B05DF85E
:1017500004FB00BF251700002DE9F04F82464FF033
:1017600000098DB01D46531E01910393039B5878C9
:101770005C1C252819D100204FF0FF381E46444636
:1017800003460236029031780396392955D81F292D
:1017900014D8002900F0EF8101992520D047019944
:1017A0003078D04709F10209E0E7002800F0E38132
:1017B0000199D04709F101090394D7E7A1F120026B
:1017C000192AE9D801A757F822F000BF3518000000
:1017D00099170000991700003518000099170000AC
:1017E000B51800009917000099170000991700001C
:1017F0009917000001190000351800009917000022
:1018000015190000C118000099170000CF1800003A
:10181000EF180000EF180000EF180000EF180000AC
:10182000EF180000EF180000EF180000EF1800009C
:10183000EF18000008460136A5E7582900F0EB80B4
:10184000A1F16302D7B2172FA6D8172AA4D801A7EF
:1018500057F822F0BD1A00003B190000991700004C
:1018600099170000991700001B1900003B19000090
:1018700099170000991700001B1900009917000024
:101880009917000099170000F1190000991700003E
:1018900099170000911A0000991700003B190000E9
:1018A0009917000099170000F1190000991700001E
:1018B0001B19000025200199D04709F1010955E7BE
:1018C000029A4FF0000802F0FE020292B3E7002CE9
:1018D0000DDAB8F1000F0DDA029A002A00F0438108
:1018E0000A2224EAE47402FB0414303CA3E7B8F1B2
:1018F000000FF5DB0A2202FB0812A2F130089AE77A
:10190000B8F1000F55F8042B80F22F81002A80F2E5
:101910002E815442022202928DE7682903D1682B5E
:1019200006D1482387E76C2902D16C2B00F0218176
:10193000002B7FF431AF0B467DE77A2B06D175295A
:1019400055F8046B14D14FF0000B0CE06C2BF6D063
:101950004C2BF4D1073525F00703752903F1080551
:10196000D3E9006B06D120283BD1854F013C09E02B
:101970004FEAE67BBBF1000FF5DA7642814F6BEB65
:101980004B0B013C0DF12D030593002304933046CE
:1019900059460A220023FEF7D5FB059BB446303298
:1019A00003F8012D5A460593049BBCF10A0F8B46A0
:1019B00072F1000203F1FF3106460491E7D2C3F150
:1019C000010B30330DEB0306B8F1000FA6F104064E
:1019D0006DDA029BD9077DD4A8EB0B03A4EB0B04B3
:1019E00013E02B280ABF684F684F04F1FF34C9E7A2
:1019F00070290FD155F8042B0023FAB96FF00403B6
:101A00004FF0050B614F624E053C029A920770D46D
:101A1000A04666E078216C2B03D1002355F8042BF7
:101A200008E04C2BF9D1073525F007031D465B680C
:101A300055F8082B232825D1880621D5554F023C7F
:101A4000002601F06001A1F1390B0DF12D0E02F01D
:101A50000F01092988BF594430310EF8011D102AA1
:101A60004FEA121141EA03714FEA131C73F10003AC
:101A700006F1FF3008D2C6F1010B06F13003A1E7F1
:101A8000454FDCE7414FDBE706460A466346DEE7A3
:101A900055F8046B304605F083FDB8F1000F83461E
:101AA00002DB4045A8BFC3464FF00008374FA8EB04
:101AB0000B03002B92DDA4EB0804A6E755F8043BCA
:101AC0004FF0010B8DF81830304F4FF0FF33013CD1
:101AD00006AE9AE7A046EAE7029320200199D04794
:101AE000029BB8F10108F7D524EAE472013C914465
:101AF000A41AB84606E0049302920199D047029ACC
:101B0000049B9046424612F8010B0028F3D11A4676
:101B1000013A15D5002BACBFC7EB03077F425B46EC
:101B2000013B15D5BBF1000FA8BF5F4426464F44CB
:101B3000013E14D5002CA8BF3F1907EB080915E694
:101B40000493029230200199D047049B029ADFE768
:101B50000293019916F8010BD047029BE0E7019927
:101B60002020D047E4E70122D5E6904663E61446FC
:101B700061E64C235FE648460DB0BDE8F08F00BF3C
:101B80007F8D00007D8D0000818D00006C8900003C
:101B9000898D0000838D0000868D00002DE9F047BF
:101BA000058B04462807904611D4022905F0070545
:101BB00040F0CC80204605F03AFB78B10138218B0B
:101BC000042811D8DFE800F0C2106D8595000129C6
:101BD0000CBF45F0100545F02005258388F31188DA
:101BE000BFF36F8FBDE8F08701F0070AAA4500F048
:101BF000A5800027B9463E46A368002B00F0BC80B4
:101C000041F00801218388F31188BFF36F8FA16829
:101C1000002900F0BA800D68002900F0B680334634
:101C200052462046D1F80480C047002D76D02B685C
:101C300029461D46F0E701F007035A1F012A1BD869
:101C4000002221F00701062B276889B2C4E900228F
:101C500009D13B4603E0628B013262831B68002B93
:101C6000F9D141F002012046218305F0E0FA002875
:101C70007AD041F0200176E0042B0AD121F007014F
:101C800089B22046218305F0D2FA10B141F020013B
:101C90002183218B01F0070AAA454FD00027B946BE
:101CA000AAE7236921F0070141F00601062DD3F8C8
:101CB000009021832DD1B9F1000F3FD041F00801F0
:101CC000218388F31188BFF36F8F20463949C847B5
:101CD00029E021F00701236941F0040189B2042DB4
:101CE000D3F804902183E6D000274FF0040A3E4643
:101CF00082E721F00701236941F0050189B2052D32
:101D0000D3F808902183D6D000274FF0050A3E462D
:101D100072E700274FF0060A3E466DE72B4687E73D
:101D2000B9F1000FD1D1EFF31188202383F312888A
:101D3000BFF36F8F238B23F008032383258BEA06E1
:101D40002ED525F01003238305F007056669218B46
:101D5000002EBFF670AF00232768C4E9003321F0DE
:101D6000070141F001012183218B4FF0000901F0AF
:101D7000070AAA457FF440AF002F9CD041F008012C
:101D8000218388F31188BFF36F8F002FC8D03D687F
:101D9000394633465246204605F075FA2F46F4E799
:101DA000AB067FF51BAF25F02003238305F0070565
:101DB00000E700BFB372000070B5104B0D461C6801
:101DC000B4B10F4B196800238B4202DB6FF00100A6
:101DD00070BD224612F8106B864202D014460133C1
:101DE000F2E7E06805F0A6FF28B100202C60EFE7DD
:101DF0006FF00C00ECE76FF01200E9E71400002030
:101E00006884000010B5436888B0029383680C466C
:101E1000CDE9033200230A68C068CDE906230549ED
:101E200001AA059305F09CFC079808B9059B23605F
:101E300008B010BDB174000008B5054805F0E0F920
:101E4000044805F0DDF9BDE80840034805F0D8B9BD
:101E50008F8D0000C08D0000F38D0000014803F05D
:101E60008DBA00BF4C85000038B5044618B90F4B39
:101E70000F485B6898476168B1F5683F10D0B1F5CD
:101E8000680F0DD00B4DA9420AD011F4686120688B
:101E900007D00146084805F0A6FF002323606560CF
:101EA00038BD142205F09EFBF9E700BF6400002056
:101EB000218E00002C5F5CA90C1D002008B500B32A
:101EC0004368B3F5683F0CD101220368D3E8EF1FE4
:101ED000002903D1C3E8E02F0028F7D10DD100205D
:101EE00008BD094A93420AD000684FF0FF324FF014
:101EF000FF3302F09DFB0028F1D00448F0E70448CE
:101F0000EEE76FF4E040EBE72C5F5CA9E98FFFFFA1
:101F1000EA8FFFFF08B5B8B14368B3F5683F0CD14D
:101F200000220368D3E8EF1F012903D1C3E8E02FA3
:101F30000028F7D10BD1002008BD074A934208D0F2
:101F4000006802F0EDFBF6E76FF4E040F4E70348C9
:101F5000F2E70348F0E700BF2C5F5CA9E98FFFFFC1
:101F6000EA8FFFFF10B5044618B91D4B1D485B688A
:101F700098476368B3F5683F2FD0B3F5680F2CD04E
:101F8000194A934219D1236803BB4FF0FF324FF037
:101F9000FF332146154802F01DFB08B923681BB921
:101FA0000F4B13485B68984714220021206805F006
:101FB00019FB4FF46863636008E0B3F5683F0DD820
:101FC0003A2B03D040F6BA629342DED1206805F086
:101FD00054FF636843F03A03636010BD054AF3E7BA
:101FE00064000020218E00002C5F5CA90C1D0020E5
:101FF000478E00003A00003A08B5064940231422F3
:10200000054805F0E2FEBDE808400449044803F035
:1020100027BA00BF0C1800200C1D002054850000BA
:102020006885000030BFFFF7FDBF00BF054B9A6910
:102030009B689A421FBF044A536843F08053536021
:10204000704700BF501E002000ED00E0154B9A6A5B
:1020500012F0007F9A6A14BF1E201D2012F0807FAC
:102060009A6A18BF1F2012F4801F9A6A18BF0220B4
:1020700012F4002F9A6A18BF212012F4802F9A6A56
:1020800018BF222012F4003F9A6A18BF232012F4CE
:10209000803F9A6A18BF24206FEA02426FEA124218
:1020A0009A62704700ED00E010B5194B0246986A3D
:1020B0009C6A10F4805F14BF1720162014F4006F80
:1020C0009C6A18BF1820A40509D5986B986A00046B
:1020D00004D51AB19A6A22F400429A6219200C4B74
:1020E0009A6A12F4806F9A6A18BF1A20D2050CD42B
:1020F0009B6A13F4005F18BF1C20054A936A43F4DF
:102100007F43936200230B7010BD1B20F5E700BFD7
:1021100000ED00E010B51C4B0246986A9C6A10F076
:10212000100F14BF1120102014F0080F9C6A18BF64
:102130001220A40709D5586B986A000604D51AB175
:102140009A6A22F080029A6213200F4B9A6A12F068
:10215000010F9A6A18BF142012F0200F9A6A18BF54
:102160001520D40658BF9B6A074B9A6A920642BF55
:102170005A6A22F400525A629A6A42F0FF029A6244
:1021800000230B7010BD00BF00ED00E070B5444BA4
:1021900006465B6800259CB0C3F3080385F31188ED
:1021A000BFF36F8F02F07F40B0F17F4F11D102F08B
:1021B0000C0008280DD010074CBF0E460125002248
:1021C000033B8DF80720032B05D8DFE803F01E5CE6
:1021D00060592E46F3E700249DF807309BB968222A
:1021E000314602A805F0F3F9099B002D53D0C3F343
:1021F000080222B96FEA53236FEA4323099320466A
:1022000002A905F091F91CB070BD254BDA6A91075F
:10221000E1D4DA6A002ADEDBDA6A5200DBD55A69D9
:10222000B16942F480725A61BFF34F8FBFF36F8F71
:102230005A6931F8021C22F480725A61BFF34F8F41
:10224000BFF36F8F4DF60272914209D09A6AD2B2F3
:1022500042B101200DF10701FFF75CFF0446BBE727
:102260003468B9E79A6A12F47F4F05D001200DF166
:102270000701FFF719FFF1E79B6AB3F5803FAAD387
:10228000FFF7E4FEEAE700200DF10701E4E7002094
:102290000DF10701EDE723F4FF7323F00103ADE730
:1022A00000ED00E0064B5A6942F010025A615A698B
:1022B00042F480625A615A6922F008025A617047FA
:1022C00000ED00E0EFF30880EFF3098101B57246FD
:1022D000FFF75CFF01BD00BF002080F31488BFF34F
:1022E0006F8F002080F30A8880F30B880F4880F3FB
:1022F000088801F09BFA00200D490860BFF34F8F5A
:1023000000F01AF8202080F311880A484FF4006189
:10231000401880F30988EFF314800221084380F30A
:102320001488BFF36F8F00F0EFF80000A052002078
:1023300094ED00E06021002072B6002383F313883F
:102340004FF0FF300C4A03F120010133102B42F80B
:102350002100F8D100234FF0FF30074A03F160015C
:102360000133102B42F82100F8D162B6BFF34F8F32
:10237000BFF36F8F704700BF00E100E0084B9B6820
:1023800083420BD1EFF3058343B1064B5A6842F009
:1023900080525A605A6A22F400425A6202F034BDF6
:1023A000501E002000ED00E022498A6882F8BDE05E
:1023B0004FF030001044EFF3098C80E8F01F1EF05E
:1023C000100F03D102F17C0080EC108A202080F3F2
:1023D0001288BFF36F8F184F4FF000668A698A60CA
:1023E0003E6092F9BDE0506F0023536780F311887F
:1023F0001EF0100F03D00023E1EE103A03E002F1CB
:102400007C0090EC108AEFF3148323F0040383F331
:102410001488BFF36F8F02F1300090E8F01F8CF347
:10242000098802F1000004B505F093F8BDE8044006
:1024300070470000501E002004ED00E01EF0040F65
:102440000CBFEFF30880EFF30980816911F8021CDB
:102450000229FFD001B5724605F06CF801BD00BF3E
:1024600040B2002807DB01234109034A00F01F00A6
:10247000834042F82130704700E100E040B200287C
:102480000CDB01220649430900F01F008240203383
:1024900041F82320BFF34F8FBFF36F8F704700BF0A
:1024A00000E100E0054B420953F82220012300F02F
:1024B0001F0003FA00F01040704700BF00E100E089
:1024C00040B2002801F10101ACBF00F16040064BB1
:1024D0004FEA4111C9B2ABBF00F5614000F00F00F7
:1024E00080F800131954704714ED00E0044B054ABE
:1024F00023F07F039360BFF34F8FBFF36F8F70475D
:102500000000000000ED00E008B5FFF7EFFF104B02
:10251000D3F8882022F47002C3F88820D3F88820EA
:1025200042F4A002C3F888204FF04042C3F834229E
:10253000BFF34F8FBFF36F8F0023E1EE103A01F02E
:1025400093FF02F087FD00F077F801F0CDFF00BFA8
:1025500000ED00E042F8203C009B0D4942F81C3C95
:10256000019B21F0010142F8183C029B42F8081C33
:1025700042F8143C4FF0807342F8043C0023436758
:102580004FF47D43203A0265C0F8BC30704700BF6D
:102590001B720000104B9B6883421AD1EFF3058039
:1025A000B8B9EFF31181202282F31288BFF36F8F45
:1025B0001A7B22F002021A73EFF3148323F0040350
:1025C00083F31488BFF36F8F81F31188BFF36F8F8C
:1025D00070476FF015007047501E00200E461546DC
:1025E000002300B5E1EE103AEFF3148323F0040367
:1025F00083F31488BFF36F8FBFF36F8F084B98601E
:10260000436E83F30B882C4686F309880020054B24
:1026100098472046002100220023034C204700BF9A
:10262000501E00205B7500001B7200001022014B41
:102630001A61704700ED00E0002320210348C21812
:102640000133412B82F80013F9D1704700E100E01B
:1026500008B5EFF30583064A103B02EBC30152F8BD
:10266000330049688847BDE80840FFF7DFBC00BF7A
:10267000AC810000014B1860704700BF380000209B
:102680000122024B0020C3F8402570470090035000
:1026900020B1034B800143F001031847704700BF8E
:1026A00030840000084B70B5C31A0D4607499B10D3
:1026B000044659434022064804F0A9FF2B46014630
:1026C0002046BDE8704018473C1D0020B76DDBB6C2
:1026D0000C810000402373B50B4C0093041B0B4688
:1026E0000D460A49A41061430646094A094804F008
:1026F000B9FF011E05DA30462B4602B0BDE8704036
:10270000184702B070BD00BF3C1D0020B76DDBB69E
:10271000CD7600000C81000010B5EFF3118420236A
:1027200083F31288BFF36F8F074A136823F0020107
:10273000DB07116002D4012005F090FA84F31188C0
:10274000BFF36F8F10BD00BF8C1D002070B500223D
:10275000012104460520FFF7B3FE0F4801F096F96A
:102760000E4B984215D101F0A1F926690C4930466B
:1027700004F0ADFD00280BDB012535642469084910
:1027800004F11C0004F0A3FD002801DB0020E56437
:1027900070BD6FF00400FBE7A12800000000AD0B46
:1027A000788500001FB500220123CDE902236B4686
:1027B000084ACDF800D0CDF804D004F080FF0028FE
:1027C00005DB4FF480420023684602F02DF805B087
:1027D0005DF804FBED7600000C22104B014602FB75
:1027E0000033002030B4D3E90E529863EFF3118028
:1027F000202484F31288BFF36F8F1C6C04F0C00494
:1028000044F002041C6480F31188BFF36F8F1DB184
:102810002B4630BC0248184730BC70473C1D002096
:102820000C81000010B4EFF31182202383F312888F
:10283000BFF36F8F1848016841F002040460C807B5
:1028400008D482F31188BFF36F8F01205DF8044B29
:1028500001F040B94FF05021D1F80C04D1F80C141C
:10286000C907EED5EFF3118083F31288BFF36F8FA2
:102870000A490B6C03F0C00343F002030B6480F3BE
:102880001188BFF36F8F82F31188BFF36F8F002021
:102890005DF8044BFFF7A0BF8C1D00203C1D0020FD
:1028A00010B1012804D07047034B1B6C5B0701D1AA
:1028B000FFF792BF704700BF3C1D00202DE9F0419B
:1028C000012207463649D1E8EF3FC1E8E02F002852
:1028D000F9D133B9334934484B60CB608A6004F096
:1028E00009FD7B1E012B2BD8012F07D14FF0502360
:1028F000D3F81C3403F00303022B21D005F0D0FAE7
:102900000546F8B9294B1B78E3B14FF0502302225A
:102910000646C3F808234FF05024DFF89480D4F81B
:102920001824D4F81834D20315D503F00303022B6E
:1029300001D0012F0FD16DB386F31188BFF36F8FD4
:10294000BDE8F081EFF31186202383F31288BFF3F3
:102950006F8F0125DFE7C5B1304604F012FED4F8D1
:102960001835DBB2012BDAD1D4F80421002AD6D0F5
:102970000022C4F80421D4F804210222C4F8182546
:102980002022C8F88021A360C9E70021212005F09A
:10299000F7FAE4E74FF050230222C3F80423CFE70D
:1029A000381D0020281D0020581D00205D2100201A
:1029B00000E100E008B5074805F0BCF938B1064869
:1029C000FFF758FE0448FEF7B3FE002008BD6FF085
:1029D0001200FBE76C810000DD2900000A2838B5F1
:1029E0000446074D04D1AB680D2128465B68984723
:1029F000AB6803485B68E1B29847204638BD00BF2A
:102A00006C810000024B0B6001231360704700BF14
:102A1000901D0020004870479C85000010B50122E1
:102A20000648114605F030FA05F07CF9044C2060A8
:102A300005F075F96060002010BD00BF981D0020F2
:102A4000901D002070B50C46154605F068F9294622
:102A50000646204604F0B9FE08B3B4FBF6F306FBC5
:102A60001343E3B9B5FBF6F306FB1353BBB9AE4210
:102A700001D9002070BD4FF0FF324FF0FF330948FD
:102A800001F0D2FE05F04BF90646204601F02EFC7F
:102A9000AD1B3444F9D1034801F092FEE9E76FF031
:102AA0001500E7E7981D0020F8B50E461946304698
:102AB00017461C4604F089FE08B346EA040515F0E3
:102AC00003051CD1A4B14FF0FF324FF0FF330D4886
:102AD00001F0AAFE24F00304A54206EB050009D18B
:102AE000094AD2F80034DB07FBD5064801F068FE3E
:102AF0000020F8BD795901F017FC0435ECE76FF0C0
:102B00001500F6E7981D002000900350430970B5AA
:102B100007D10B4B596821B101250C68094E85403E
:102B200001B970BD8A682A4002D030464B68984788
:102B30001CB1236821461C46F2E72346FAE700BF92
:102B4000A81D00202C8100002DE9F04340F206353D
:102B50004668D00648BF0320337B02EA050558BF0C
:102B6000C2F3401087B001F01F07B5F5837F14460C
:102B700047EA43178DF8030041D00FD8062D18D02F
:102B800007D8B5B1022D3CD06FF0150007B0BDE8F5
:102B9000F083B5F5807FF7D101250AE040F20222EB
:102BA000954230D0B5F5407F2FD0B5F5007FEBD101
:102BB000022522032BD5012372688B409360326972
:102BC00062BB07F01F037F0975D13D4A84F4803151
:102BD00002EB8302D2F80032C1F30041C4F3404457
:102BE00023F4E16344EA410423F007031C4344EA6D
:102BF000800444EA0524C2F800420020C6E7072505
:102C0000D7E70425D5E70525D3E70325D1E76303F7
:102C100041BF012372688B40D360D0E7103639463C
:102C200030460DF1020201F00DFA14F4403F8046E7
:102C30000CD13946304605F06BF8224B9845DCD173
:102C400030469DF8021001F03DFAD6E74FF000093A
:102C500001AB3946304603AACDE90439CDE90199E3
:102C6000CDF80C9001F0BCF8164B98428CD114F4BE
:102C7000003315D09DF8033084F48034C4F300444D
:102C80008DF80E3039464B46304603AA8DF80C506D
:102C90008DF80D4001F058F90A4B9842CDD073E7FA
:102CA000CDE9043339460DF10303304603AA0393FB
:102CB00001F096F8F0E7803352F82330FFDE00BFD2
:102CC000002584500000AD0B38B545682B69B3B1C1
:102CD0001035284601F0ECF9044680B90146284633
:102CE00001F0C2F9084B98420BD122462846074909
:102CF00001F0A2F9224605210D20FFF7E1FB00209B
:102D000038BD6FF00400FBE70000AD0B0D2B000099
:102D1000F0B51646426801F01F04107B87B044EA04
:102D20004014106900286DD0B6F5001F02F110059F
:102D300006D12146284604F0EDFF002007B0F0BD83
:102D40000027B6F5800F01A80197476037D1B3F18E
:102D5000007F14BF052304238DF804300023CDE940
:102D60000403039393680DF1030723FA01F111F0B3
:102D7000010139D1B6F1A07F36D104F01F036209F9
:102D800003F1800344D1244A52F82330DB072BD4CB
:102D90003A462146284601F055F9204B984219D071
:102DA00002972146284603AA01F01AF81C4B9842C4
:102DB0002BD101222146284601F094F9BDE7B3F159
:102DC000C06F05D0B3F1007F14BF01230223C3E716
:102DD0000323C1E73946284601F07CF9104B98429D
:102DE000DED06FF00B00A9E73A462146284601F0F5
:102DF00029F90B4B9842D4D128469DF8031001F0D5
:102E000061F9CEE76FF0850098E76FF0150095E760
:102E100051F82330FFDE00BF002584500400AD0BC5
:102E20000000AD0B2DE9F04740F2FF16594FDFF8D7
:102E300068C1DFF868E100EB8101814202D1002026
:102E4000BDE8F087046814F4804FC4F3C325C4F3CD
:102E5000080340F08C80240EB34208BF4FF0FF33CC
:102E60007D5D192C00F28680DFE804F00D13191C3B
:102E70001F251C84848484366084848484848484B0
:102E8000848463787B7EC2F80C355C1C5BD1043093
:102E9000D3E7C2F814355C1CF9D000245CE0C2F81A
:102EA0000835F2E7C2F81035F5E75C1CC2F80835C2
:102EB000EDD0002404E05C1CC2F80C35E7D00124FE
:102EC0005FEA531859D14FF00109DFF8CC8009FAB5
:102ED00003FAC8F80CA008E0C2F80835002DDAD1D2
:102EE0005C1CD4D000240625A146D0F800A00AF42A
:102EF0000048B8F1000F1CBF4FF00009012403F097
:102F00001F085B093FD10CEB8808D8F80032CAF3E0
:102F1000412A03EA0E0343EA8A0343EA052343EA0C
:102F2000090343EA4403C8F80032B0E7C2F80C359D
:102F3000D4E7C2F86035B3F1FF3F0468A7D0C4F30B
:102F40000044002CBBD05C091AD10124DFF8488072
:102F500004FA03F9C8F80890A146C6E7C2F8643538
:102F6000E9E7C2F86835E6E7C2F86C35E3E76FF0E9
:102F7000150065E76FF0850062E70023DB60FFDE88
:102F800000239B60FBE7002308F1800853F82830FA
:102F9000F5E700BFAE8E000000258450F0F8FCFF7E
:102FA0002DE9F04104460D46476804F079FF4FF0E3
:102FB000200888B9264B1B7873B16426606804F03A
:102FC000A3FCF0B9012004F0E9FD013EF6D1002197
:102FD000212004F0D5FFF0E7EFF31186314688F3A6
:102FE0001288BFF36F8F606804F08EFCA8B986F377
:102FF0001188BFF36F8FEFE786F31188BFF36F8FF0
:10300000E5E7EFF31186314688F31288BFF36F8F3F
:10301000606804F079FC0028EED0BB6900201D70C8
:103020006368BA691B68C3F844250122C3F84825C0
:10303000C3F82001D3F82041C3F85801D3F8580150
:103040009A6081F31188BFF36F8FBDE8F08100BFF4
:103050005D210020F8B5054644680121E06804F0D0
:1030600084FC6B681A682369C2F82435617D237D6E
:103070000B43A17D0B43C2F86C356E68D6E9004363
:1030800013F0010342D02F6907F1080000F0F8FCAB
:103090002D4B984254D1387A04F10C0204F590710A
:1030A00004F07EFD387A012707FA00F000F0E2FC18
:1030B0000823C4F80035B369C4F844350023C4F8C4
:1030C0004835A760D4F85831002BFBD00026C4F84F
:1030D00000656B683146D86804F047FC6D6831467E
:1030E000E8682C6804F041FC0823C4F800352A7A0B
:1030F00052B9EB69C4F834350123C4F83835C4F843
:103100001021D4F8102123600020F8BD0822C4F853
:103110000025B269C4F84425C4F848350123A360EA
:10312000D4F82031002BFBD00023C4F82031D4F890
:1031300020310123E3604FF48073C4F80433C1E706
:103140006FF00400E1E700BF0000AD0B01238340F6
:1031500070B5DC430B4AD2E8EF1F01EA0405C2E870
:10316000E65F002EF7D14FF4803282400648C0F867
:103170000823BFF35F8FBFF36F8F0B4214BF012093
:10318000002070BDD01D00200050015070B40E49C9
:1031900022F07F46D1E90034D01AC31844F100046C
:1031A000C1E90034A6F50013B3F5400F09D2074B6F
:1031B0001B681A0A1B069C19054B42F10005C3E95E
:1031C000004570BC02F022B830010020D41D002060
:1031D00038010020D9B101230D4A8340D2E8EFCF56
:1031E0004CEA030CC2E8E1CF0029F7D14FF4803359
:1031F000084A8340C2F80433074BD3E8AF3FC340CB
:10320000DB0742BF4FF40012044BC3F800217047A4
:10321000D01D002000500150CC1D002000E100E036
:103220000D4B1868010A0006BFF35F8F0B4BD3F8F4
:103230000435181841F10001B3F5801F0AD2084B7C
:10324000D3E90023904271EB030303D210F18070A5
:1032500041F10001704700BFD41D00200050015013
:10326000380100202DE9F04F85B016461F46044670
:103270009DF840A0FFF76AFF0190FFF7D1FFB04231
:1032800071EB070352D23B4B301A67EB01019842B6
:1032900071F100014DD2384B03EB0413D3E9022343
:1032A0009F4208BF964258D04FF48038334908FAFD
:1032B00004F8204626F07F4BC1F8488304F082FBD7
:1032C0004FF00309584604F15005AD00ADB205F1C9
:1032D000502504F5A87305F580350293029A20F075
:1032E0007F4341F82230C1F84483D1F80435244AA1
:1032F000C01A033820F07F4090422ED9286868B168
:10330000D1F80435A3EB0B0020F07F40B0F5000F9F
:10331000039322D9204604F055FB039BBAF1000F1A
:1033200007D109EB030009F10109D7E7BAF1000F52
:1033300009D06FF0150520460199FFF74BFF28468D
:1033400005B0BDE8F08F01230E4AA340D2E8EF0F8D
:103350001843C2E8E10F0029F8D107490E9823016C
:10336000C8500F9B01EB04120025C2E902675360AD
:10337000E1E700BF01008000200100200050015063
:10338000FDFF7F00CC1D00207FB500254FF0FF30F2
:103390004FF0FF31194C1A4B0226C4F80833C4F819
:1033A0004833184BC4F80855C3E902014FF4803381
:1033B0004FF40012C4F80433134B0121C4F8046322
:1033C0001520C3F880212A46FFF77AF81520FFF769
:1033D00047F801230D4AA360236013600C4B0D4A8C
:1033E000009328460023CDE90155FFF73BFF304607
:1033F000FFF764FA284604B070BD00BF00500150CA
:1034000003000F002001002000E100E0D01D00209B
:103410008D310000FFFF7F002DE9F7432E4BD3F8DD
:10342000042390070BD5D3F8042142B10022C3F83E
:1034300004212A4AD3F80431136801331360264A61
:10344000D2F80433D90326D5254BD3E8EF1F21F05A
:103450000100C3E8E40F002CF7D1CB0702D4D2F867
:103460004031C3B100251C4CC4F84051D4F8403160
:10347000FFF7D6FEEFF31182202383F31288BFF308
:103480006F8F184BD3E90267B042B94106D282F37D
:103490001188BFF36F8F03B0BDE8F0834FF0FF38A2
:1034A000D3E900104FF0FF391D60C3E902894FF4E2
:1034B0008033C4F84833C4F84051D4F8403182F323
:1034C0001188BFF36F8F0029E5D0009032463B464C
:1034D00028468847DFE700BF00500150D41D002078
:1034E000CC1D00202001002030B5431C124C85B0BB
:1034F00005D08442A8BF0446012CB8BF0124FFF7C1
:103500008FFE0E4B0C4DD3E90013401AB0F5000F9F
:103510000FD22218AA4228BF2A4600205218084972
:10352000CDE90100009143F10003FFF79BFE05B0D8
:1035300030BD2A46F1E700BFFFFF7F0030010020C9
:103540008D31000008B5FFF76BFE024B1B68C01AF7
:1035500008BD00BF30010020012310B5074C152025
:103560006360FEF78BFF4FF40012054BC4F808337D
:10357000C4F84833034BC3F8802110BD00500150FC
:1035800003000F0000E100E040EA0103C3F30E0373
:1035900030B58BB940F21515094CC90BC0F3C730D3
:1035A000994201D1002030BDC218D2B202F5C072DA
:1035B00044F822500133F3E76FF01500F3E700BF42
:1035C0000030005030B5816885B0103921F0070413
:1035D000054603F066FF10220146684604F002F833
:1035E00010226846064903F0F2FF10236A4621467E
:1035F000284603F025FF003818BF012005B030BD74
:10360000F687000030B50D46816887B0102302AA06
:103610001039044603F0FFFE002802DA012007B04B
:1036200030BD1022204602A904F0F7F900283AD153
:1036300010221E4902A803F0BAFF00280CBF012384
:1036400002232B70204604F0D4F9012301460DF12A
:103650000702204603F0DFFE0028DFDB9DF807307D
:10366000204603F00F021B096A702B7101220DF135
:10367000070104F0D2F910B96B78042B03D90123A8
:103680006B7000232B71A2682046183A22F00702C3
:10369000083AA91C04F0D4F90028BFD12046E91C3F
:1036A00004F027FABBE70323CBE700BFF68700004F
:1036B000F0B5354F85B046000546694657F82600F7
:1036C00004F01DFA044610B1FF2005B0F0BD01362C
:1036D00057F8260002A904F012FA012837D12A4629
:1036E00049212A4803F07CFE294B8DF80C400293B7
:1036F00000229DF800609DF80870264C3146207825
:1037000004F07DF950B33946607804F078F928B3B5
:10371000A378042B03D09DF8031099421ED1E378BF
:10372000042B03D09DF80B10994217D12379042B59
:1037300010D16279022A1DD1174B18482A46492117
:1037400003F04EFE6079831E022BBED9BCE7002831
:10375000CED0B9E79DF802109942EAD00132032A8F
:1037600004F10604CAD10E482A46492103F038FE66
:103770000120AAE7032A05D00A4B0B49042A08BFF7
:103780000B46DAE7094BD8E744860000ED8E0000CF
:1037900003010303828F0000CF8E0000388F0000EA
:1037A0005C8F0000D48E0000E68E0000CA8E000000
:1037B00008B5EFF31083012B0C4A07D1126ABFF34F
:1037C0004F8F511C4A424A41104608BD04F0C4F9CB
:1037D00000B172B6126ABFF34F8F531C5A425A415E
:1037E00004F0BAF90028EFD062B6EDE70080FF00E0
:1037F00008B5EFF31083012B0B4A06D1D269BFF352
:103800004F8F02F00102104608BD04F0A5F900B187
:1038100072B6D269BFF34F8F02F0010204F09CF937
:103820000028F0D062B6EEE70080FF0010B504F08B
:1038300093F930B14FF050230022C3F81421C3F89C
:10384000182104F098F928B10122644BC3F8382AF2
:10385000C3F878254FF47F02D2F83031D2F8342102
:10386000BFF34F8FC3F30B03092B05D1012A1EBFF2
:1038700001225A4BC3F8782504F07DF918B10E22C5
:10388000574BC3F8E42E04F067F930B10022534BD4
:10389000C3F80C270122C3F810270022D30003F538
:1038A0007F03D3F80013BFF34F8F013108D0D3F853
:1038B00000130132D3F80433B2F5807F0B60EDD1F1
:1038C000EFF31084FFF794FF00284DD0BFF34F8F24
:1038D000444BD3F80024012AFBD1C3F80425D3F8C4
:1038E0000024012AFBD1012C03D004F035F900B1EA
:1038F00072B6FFF77DFF58B13B4AD36923F001034D
:10390000D361BFF34F8F374AD2F80034012BFBD17C
:10391000FFF74EFF68B1344A136A23F0FF0343F008
:1039200020031362BFF34F8F2E4AD2F80034012BCD
:10393000FBD1012C03D004F00FF900B162B60022D4
:10394000284BC3F80425D3F80024012AFBD1BFF388
:103950004F8F2649264BCA6802F4E0621343CB60BE
:10396000BFF34F8F00BFFDE7FFF722FF0028ADD167
:103970001E4AD2F88C3043F44063C2F88C304FF4C6
:103980007F03D3F83021D3F83431BFF34F8FC2F324
:103990000B02092A16D1013B022B02D8154AD35C2F
:1039A00083B11148144903680E4A8B420CBF5A2355
:1039B0000023C2F8103EC36A8B420CBF5A23002377
:1039C000C2F8003E094AD2F8883043F47003C2F8C6
:1039D0008830BFF34F8FBFF36F8F10BD0040005092
:1039E00000A00350009003500080FF0000ED00E0B5
:1039F0000400FA05948F0000FA50FA5030B50468BC
:103A0000ACB1B4FA84F30122C3F11F03DBB29A40D4
:103A100024EA0202D0E8EF5FA54204D1C0E8EC2F0F
:103A2000BCF1000FF6D1EAD102480B7030BD02485C
:103A3000FCE700BF0000AD0B0200AD0B10B5036842
:103A4000CB40DB0710D401238B40026843EA02011C
:103A5000D0E8EF4F944204D1C0E8EC1FBCF1000F56
:103A6000F6D1F2D1014810BD0148FCE70000AD0BD2
:103A70000400AD0B014BC3F8040570470070015002
:103A80000146014800F0B6B83C000020044B1A790A
:103A900022B9012218601A71024870470248704723
:103AA000D81D00200000AD0B0C00AD0B08B5084B75
:103AB0001B6833B10520FEF7F5FC10B90520FEF7B1
:103AC000CFFC4FF050230122C3F8182508BD00BFDA
:103AD000D81D002010B510B1012847D010BD4FF0FF
:103AE0005023D3F81814D3F81824C90322D502F0B0
:103AF0000303022B05D0012B02D0002004F057F85D
:103B000001234FF050220220C2F8183508224FF44A
:103B10008273002103F1502319601C68012402F113
:103B200050221460164A126822B34FF05023C3F893
:103B30000403D3E7D3F81424D207E1D5D3F81C2427
:103B400002F00302013A012AD7D80D4A12681AB1CD
:103B50000222C3F80423C1E7D3F80421002AFBD0D2
:103B60000022C3F80421D3F80431B7E700224FF450
:103B70008073CEE71A68002AFCD019601B68ADE795
:103B8000D81D0020F8B54FF0502301250026D3F8AA
:103B90000443174F04B9F8BDB4FA84F0C0F11F0014
:103BA000830003F580739BB203F1502305FA00F202
:103BB0001968D2B224EA02040029EBD01E601B6807
:103BC0004FF05023022AC3F808230DD1D3F818145C
:103BD000D3F8181401F00301012905D1C3F8182501
:103BE000C3F804239960D5E73B68C0B29847D1E792
:103BF000D81D00200079024B03EB0010FFF7FEBE3A
:103C000044000020036803F01F025B0902600248C1
:103C100018BF0020704700BF0025845070B5C3B2A4
:103C20000C4C083334F813300546DA050E4607D538
:103C3000C3F3432304EBC302526854F8333098476C
:103C4000A3682BB131462846E268BDE870401847AA
:103C500070BD00BFE01D0020024611F0010004D03D
:103C600003490B6A13600B6203B90020704700BF61
:103C70000025845010B4134AC0B2083032F8103016
:103C8000D9051CD5C3F3432123F4F85322F810308F
:103C9000002002F10E0434F8023F13F4807F03D0B9
:103CA000C3F3432399420AD001302028F3D10023E3
:103CB00042F8313004485DF8044BFFF7BFBE5DF8B1
:103CC000044B7047E01D0020381E0020F0B504466C
:103CD00000200125064601F1A05101F55151104A7D
:103CE00089008A420BD10F4BD3F87C2132B10022DC
:103CF000C3F87C21D3F87C3140F00040F0BD02F1E4
:103D00003043A3F551439B0805FA03F31C4204D04A
:103D1000176817B11660176818430432E1E700BF4F
:103D200000D1005000D00050CBB2024608460D49E9
:103D3000083331F81330990611D599070FD40121B2
:103D400010685B0B9940C0F80813126802EB8303FC
:103D5000D3F8102522F00302C3F810257047002184
:103D600003F0C7BFE01D0020F7B5194ECDB20835EE
:103D700036F815300746DB070C4626D5FFF7D4FF8B
:103D800036F815309A0608D55A0B3B6803EB8203C8
:103D90000022C3F81025C3F810252046FFF76AFF5C
:103DA000002301A826F815300194FFF72BFF019B93
:103DB00000EB8300D0F80022064B134043F00203CF
:103DC000C0F80032044803B0F0BD0448FBE700BF70
:103DD000E01D0020F0F8FCFF0000AD0B0400AD0B6F
:103DE0002DE9FF41136807460C461646FBB1DFF884
:103DF0004881CDB2083538F8152002F02202222A77
:103E000022D000222046CDE900228DF80E208DF828
:103E10000F200DF10E010DF10F0203F021FF38F814
:103E2000153023F0020343F0010328F815307368BE
:103E300063B393F800C058683F4AE3B2083332F8DE
:103E400013108D0702D5C8B13C4822E021F02001B3
:103E5000C904C90C22F8131080B1BCF1030FF3D8C8
:103E600070683D68406890F800E005EB8E05BCF195
:103E7000000F11D1C5F810C5C5F810C532F81310E0
:103E800021F01C0141EA8C0122F81310B3684BBBEE
:103E90002B4804B0BDE8F081D5F8108541EA4E31D9
:103EA00028F00308C5F810853D6841F0200105EBB6
:103EB0008E05D5F8100522F8131020F4473020F4B1
:103EC0004070C5F810052002D5F8107500F4F850C0
:103ED00040EA0C403843C5F8100502EB4E00A0F84C
:103EE0005C40CBE72046D3E90067FFF7C3FE002E16
:103EF000CED0114DD5E90023964203D19F4201D186
:103F0000002209E00F480DF10F01FFF777FD0C4B80
:103F10009842BED19DF80F20E4B205EBC2030834ED
:103F20005F6035F8143045F8326043EA422343F4C9
:103F3000807325F81430ABE7E01D00200400AD0BC2
:103F40000000AD0B381E00202DE9FF4107460C464E
:103F50001E4612B3DFF8D480CDB2083538F81530DC
:103F6000980701D4990621D413F01C0F02D053787E
:103F7000012B1BD001238DF80F3000232046CDE903
:103F800000230DF10F01931C013203F069FE38F894
:103F9000153043F0030328F81530002E44D0234D8C
:103FA000E1B2083135F81120930703D4204804B05A
:103FB000BDE8F081002096F800E03B6822F0200286
:103FC000D20403EB8E03D20CC3F8100525F81120A0
:103FD000C3F8100596F801C04FEA8E08BCF1000F37
:103FE00022D03868B6784044D0F810354FEA0C4CEF
:103FF00023F4981323F4F853C0F81035230203F484
:10400000F8530CF4403C3605D0F8107543EA0C0325
:1040100006F48016334342EA4E323B4342F020021C
:10402000C0F8103525F811200248C0E7E01D002037
:104030000400AD0B0000AD0B014BC3E90212704749
:10404000E01D0020054BC9B2083133F81130990644
:1040500043BF5B0B0248137002487047E01D00200D
:104060000000AD0B0400AD0B70B50E4C064694F885
:104070006C50A5B94022294604F1100003F0B2FAB1
:104080003068C0F87C51D0F87C3140F30730FEF73F
:10409000E7F90123044884F86C30A36570BD034838
:1040A000FCE700BFE01D00200000AD0B0C00AD0BD5
:1040B000034B93F86C00003818BF0120704700BF15
:1040C000E01D00200079024B03EB8000FFF7B6BC37
:1040D000540000200079024B03EB8000FFF78EBCF8
:1040E0005400002073B5CBB20C462149083331F897
:1040F000133001689D0619D513F0020616D15B0B2B
:104100009C0004F580754E51495901682144D1F84D
:10411000104544F00104C1F810452AB1012201689C
:1041200002FA03F3C1F8043302B070BDD1F80423DE
:10413000C3F38203002AA4BF4FF00042C1F8042356
:10414000042B11D0052B11D001A80194FFF75AFDC3
:10415000019A0369D34003F00103991C204602B081
:10416000BDE8704003F0C5BD0321F7E70221F5E784
:10417000E01D00202DE9F3474F4B0821D3F804033D
:10418000C0B240F00040FFF7A1FD051E16DA002383
:104190000121684600930127FFF75EFDDFF81C81CF
:1041A000009999B94FF00040FFF790FD0121684652
:1041B000FFF752FD0028F3D125F0004501243E4EC3
:1041C0003E4F002D63D102B0BDE8F08791FAA1F413
:1041D000B4FA84F4E00804F1080338F8139004F00A
:1041E00007021DF8003007FA02F223EA02030DF875
:1041F000003001A80194FFF705FD019B4FEA9901EA
:10420000803350F82360C9F3820A4B07D146C6F3C6
:10421000014621D520465146FFF700FD01A8019433
:10422000FFF7F0FC019BF6B2803350F82330C3F364
:1042300001439E4207D10021204603F05AFD31463A
:10424000204603F056FD01A80194FFF7DBFC019B1B
:1042500007FA03F30362A3E7022E0CD103212046E1
:1042600003F047FD0AF00503012BECD14946204637
:10427000FFF7D4FCE7E70221204603F03AFDBAF14C
:10428000030FF3D0032EDED1BAF1020FEDE795FA5A
:10429000A5F3B3FA83F304FA03F225EA020503F562
:1042A000A27256F8221007EB4303B3F85C00C1F387
:1042B0000141FFF7B3FC84E700D00050E01D00206F
:1042C0000022034BC3F88425C3F80425704700BFC0
:1042D00000900350044AD2F80834DB07FBD5016094
:1042E000BFF35F8F704700BF0090035008B5C0F365
:1042F0000B0383B90222094BC3F88425C3F80425B4
:104300004FF0FF320260D3F80024D207FBD5FFF74D
:10431000D7FF034808BD0348FCE700BF00900350E7
:104320000000AD0B0A00AD0B012208B5054BC3F828
:104330008425C3F80425FFF7CDFFBDE80840FFF74B
:10434000BFBF00BF0090035038B5EFF311852023A5
:1043500083F31288BFF36F8F064B9C6803F0FDFC5C
:1043600085F31188BFF36F8F2046BDE83840FEF714
:1043700005B800BF501E002038B50A4B53F8204046
:10438000013053F82050A54200D838BD606830B1E4
:10439000037FDB0701D403F0E3FC0834F3E7236871
:1043A0009847FAE74C860000012270B5294B03209C
:1043B00086B01A70FFF7E0FFFDF73EFD0420FFF71F
:1043C000DBFF254C254D2646AE4204F1300410D3C8
:1043D00000F020FC204C224EAC4226D300F02EFCF4
:1043E000FCF718F81F4A137B23F00103137306B080
:1043F00070BD54F80C3C059354F8103C049354F8E9
:10440000143C039354F8183C029354F81C3C019359
:1044100054F8203C009354E90A2354E90C0100F0BD
:1044200029FA54F8303C5E65CDE7D4E90A23B3F1AC
:10443000FF3F08BFB2F1FF3F05D052EA03012068F9
:1044400003D100F0B7FC3034C6E73146183000F035
:104450004BFEF8E75D210020B4830000B483000028
:10446000797F00000002002008B50348034A0021BC
:10447000121A03F08CFC08BD2001002060210020EE
:10448000C02370B5134E012203FB0066002386B0E3
:10449000CDE904230F220193CDE9023218234FF412
:1044A000A0720D4D0D4903FB0055044602FB00119F
:1044B0000B4B3046009500F0DDF9737B2C7423F034
:1044C00004037373074B013403EBC423EE606B608A
:1044D00006B070BD40010020501E00206029002061
:1044E000557E000060210020BFB50020FFF744FF8B
:1044F000274B03F5006282F3088883F30A880024BF
:10450000E023244D244F85F82230EC772C766C760E
:10451000AC7685F820406B6A43F4E0236B6285F843
:104520002340FDF7BFFEFEF781F84FF0FF331B4835
:10453000AB62EB6200F0CEF903F0FBFB0120FFF76A
:104540001BFF0220164DFFF717FF00F0ABFB154BCA
:1045500015499D61154B4FF42052059301232846C0
:10456000CDE90343CDE901443B46009400F082F9D4
:1045700006466A7B284622F004026A7303F0D0FCE8
:104580002046FFF77DFF3A4631462846FEF726F8DB
:104590006021002000ED00E0A9430000C0020020DF
:1045A00000020020501E0020A02A0020978F00004B
:1045B000002038B5054C064DAC4200D338BD20462E
:1045C00003F0E9FB0028F9DB1C34F5E7D0000020FC
:1045D000D000002073B50C46EFF31181202585F340
:1045E0001288BFF36F8FC5685DB125602B68C3600B
:1045F000836901338361002081F31188BFF36F8FDA
:1046000011E052EA030603D16FF00B002560F3E7D7
:10461000CDE900230246083000F042FA18B9034BF6
:104620009B681B69236002B070BD00BF501E002054
:104630002DE9F341044617461E46EFF31188202367
:1046400083F31288BFF36F8FC368334A7BB18068EE
:104650009168884219D057EA060318D188F3118867
:10466000BFF36F8F6FF00F0002B0BDE8F08191686B
:1046700091F90E100133E36093682161A36088F320
:104680001188BFF36F8F0020EEE72169F2E791F9FF
:104690000E1090F90E306FF07E029942A8BF1946B5
:1046A0009142B8BF11468B422DDD03F0DEFB05467B
:1046B00022464146CDE90076184800F0F1F900287D
:1046C000E1D0EFF31186202383F31288BFF36F8FBD
:1046D000A068D0B1236821699C420AD04BB193F9FC
:1046E0000E309942A8BF19466FF07E039942B8BFB9
:1046F000194603F0BAFB40B13146084800F064FAAD
:104700006FF00A00B0E70025D2E7002DF4D186F360
:104710001188BFF36F8FF3E7501E00205E21002049
:10472000F8B583680546002B3FD0234A9268934230
:104730003ED1C368012B03D9013BC3600020F8BD03
:10474000EFF31187202383F31288BFF36F8F016982
:10475000806803F08AFB2C68AC4207D10023C5E9CE
:10476000023387F31188BFF36F8FE7E7002CF5D092
:10477000D4E90032002613605A60637BC4E9006606
:1047800023F002036373A66004F1180003F036FC03
:10479000AC6094F90E3020462B61A66703F0C0FB95
:1047A0003946064800F010FAC8E76FF01500C6E772
:1047B0004FF0FF30C3E700BF501E00205E210020F5
:1047C00070B5EFF31186202383F31288BFF36F8F48
:1047D0000468A0421AD0CCB1D4E90032002513609D
:1047E0005A60637BC4E9005523F002036373A5603C
:1047F00004F1180003F002FC2046A56703F090FBCB
:104800003146BDE87040074800F0DEB9D0E9023219
:104810009A4218BF0133836086F31188BFF36F8F0C
:1048200070BD00BF5E21002013B5EFF3118120247D
:1048300084F31288BFF36F8F846844B1013C8460B5
:1048400081F31188BFF36F8F002002B010BD52EAD0
:10485000030406D181F31188BFF36F8F6FF00F004F
:10486000F3E7CDE900230246014800F019F9ECE72F
:104870005E2100202DE9FF410E9E00F158050673D0
:104880000426C0E916550025044646730D9EC0E96E
:1048900006558673D61D0C9A26F00706C0E9191630
:1048A0008560C573C56602920B9A01EB06080192FA
:1048B0000A9A00924246FDF74DFE054B65659B68DE
:1048C00003B11B6F4046236704B0BDE8F08100BF11
:1048D000501E002040F2011383810023C0E91933E8
:1048E0000367014B98607047501E00206FF00A016B
:1048F000084A93689967084958674B6843F08053A2
:104900004B60002383F31188BFF36F8F9368986F18
:10491000704700BF501E002000ED00E070B590F918
:104920000D20437B002A36DBD90634D11B4C63F0C3
:104930007F032246437352F81C3F216A934207D1FA
:10494000C0E900210860206211E09942F8D01B689C
:10495000002BF5D090F90E5093F90E60B542F4D0CB
:10496000AE42F2DD5968C0E9003108605860E5697F
:10497000954200D005B9E568A3685A7BD20604D1F8
:10498000DA897F2A01D9AA6932B1AB4202D028461E
:1049900000F008FBA56170BDA361FCE7501E00207C
:1049A00038B590F90D200146002A437B04DA03F064
:1049B0007F03437303F07AFA0D4D2A4652F81C4FD9
:1049C000AB68944200D004B9EC688B4207D05A7BA4
:1049D000D20604D1DA897F2A01D9A2692AB1A34279
:1049E00002D0204600F0DEFA2346AB6138BD00BF9E
:1049F000501E0020B3F1FF3F08BFB2F1FF3F03D0CC
:104A00000249183000F070BB704700BF797F00008A
:104A100070B590F90D200146002A437B04DA03F0BB
:104A20007F03437303F042FA1C4C4B7B224663F036
:104A30007F034B7352F81C3F206A934207D1C1E9B0
:104A400000200160216211E09842F8D01B68002B21
:104A5000F5D091F90E5093F90E60B542F4D0AE4204
:104A6000F2DD5868C1E9003001605960E569A3686A
:104A7000954200D005B9E5688B4207D05A7BD20633
:104A800004D1DA897F2A01D9AA692AB1AB4202D0BE
:104A9000284600F087FA2B46A36170BD501E002007
:104AA000F8B5DDE906670D4B0C46986811460C4ACF
:104AB0001060EFF31182202282F31288BFF36F8F10
:104AC0009D68284603F004FA284632463B46FFF725
:104AD00091FF2046BDE8F840FFF708BF501E0020B8
:104AE000741E0020F8B50446EFF31187202383F3EA
:104AF0001288BFF36F8F437B49B203F01F02002A75
:104B00000CBF0126002639D103F07F032D4D4373DE
:104B100003F0CCF92A46437B817363F07F03437330
:104B200052F81C3F934227D1286AC4E90020046050
:104B30002C620FE09842F8D01B68002BF5D093F957
:104B40000EC06145F6D08C45F4DD5968C4E90031EA
:104B50000C605C60EC69944200D004B9EC68AB680E
:104B60009C4202D0204600F01DFAAC6187F3118808
:104B7000BFF36F8F3046F8BD286ADEE79B071ED56E
:104B8000856803F093F981732B689D4209D16B68A6
:104B9000C4E900531C606C60E8E76A689342F6D091
:104BA0001B68002BF3D093F90E209142F5D08A4276
:104BB000F3DD5A68C4E9003214605C60D6E78173A3
:104BC000D4E700BF501E002049B9EFF3058030B98B
:104BD000054B9A699B689A4201D0FFF787BE81F323
:104BE0001188BFF36F8F7047501E0020034648B9ED
:104BF000EFF3058232B9064A91699268914201D079
:104C0000FFF774BE83F31188BFF36F8F704700BF47
:104C1000501E0020EFF31181202383F31288BFF38D
:104C20006F8F054B9A68D37B013BD37381F3118857
:104C3000BFF36F8F704700BF501E002070B5EFF3B9
:104C40001186202383F31288BFF36F8F144DAB6856
:104C5000DA7B0132DA732A4652F81C4F944200D0B4
:104C600004B9EC685A7BD20604D1DA897F2A01D9CB
:104C7000A2692AB1A34202D0204600F093F923464C
:104C8000AB6186F31188BFF36F8FEFF311802023A0
:104C900083F31288BFF36F8FBDE87040FFF7A6BFA4
:104CA000501E0020024B03F11C02C3E9072270478B
:104CB000501E002070B5EFF31186202383F3128875
:104CC000BFF36F8F1B4CA168206A0B68814214BF31
:104CD0001A46002249680B605960A368216A2AB904
:104CE000154AC3E900210B6023620CE093F90E0022
:104CF00092F90E50A84218D0854216DD5168C3E9DA
:104D000000210B605360E5690B4B9D4200D005B953
:104D1000E568A3689D4202D0284600F043F9A561EA
:104D20003046BDE87040FFF7E1BD8A42D8D0126836
:104D3000D5E700BF501E00206C1E0020F8B550EAD9
:104D4000010306460C4603D1FFF7B4FF0020F8BD6F
:104D5000EFF31187202383F31288BFF36F8F124D77
:104D6000124BA8681860FFF71BFEA868234632465E
:104D70000F49183000F0B8F9AA680446537B38464A
:104D800043F004035373FFF7B1FDAB68D3E90A2383
:104D9000B3F1004F08BF002AD8D103F057F9201A09
:104DA00020EAE070D3E700BF501E0020741E0020F0
:104DB000797F000038B50446EFF31185202383F393
:104DC0001288BFF36F8F437B5B070FD5183003F05A
:104DD00015F9637B204623F004036373FFF79EFD00
:104DE0002946BDE838400448FFF7EEBE85F3118838
:104DF000BFF36F8F38BD00BF5E210020014B986864
:104E0000704700BF501E00202DE9F8430446077B81
:104E1000EFF31185202383F31288BFF36F8F437B59
:104E2000190705D585F31188BFF36F8FBDE8F883A7
:104E3000D90943F008025DD14273A36813B120463B
:104E400003F03CF804F1180003F0D8F8A66D04F163
:104E50005808B04511D04FF0000976B1304603F044
:104E60002DF806F1180003F0C9F83046C6F878901E
:104E7000FFF754FDA66DB045EFD1DFF8C880D8F834
:104E800008309C423ED1EFF30589B9F1000918BF03
:104E90004FF00109D8F81C60284A964200D00EB99C
:104EA000D8F80C60B34202D0304600F07BF82046C0
:104EB000C8F81860FDF76EFBB9F1000F02D020486A
:104EC000FFF708FDD8F808309C4231D1EFF3058395
:104ED00073BB227BD20718D42846FFF707FDFB07D8
:104EE000A4D5002383F31188BFF36F8F04231846E2
:104EF00002DF9BE703F07F0343F00803437302F0F4
:104F0000D5FF9AE74FF00009C4E785F31188BFF396
:104F10006F8F83F31188BFF36F8F0423184602DF6E
:104F2000EFF31180202383F31288BFF36F8FD4E750
:104F300085F31188BFF36F8FD1E700BF6C1E00208F
:104F4000C0020020501E00200122044BC01A044B56
:104F5000C0105843034B1A54704700BF8003002011
:104F6000ABAAAAAA5E210020C3897F2B12D80A4BC4
:104F70001B6863B1094B90F90E201B689A4209DB4C
:104F8000437BDB0606D1064BC31A18BF012303F08F
:104F9000010070470023FAE758000020781E002027
:104FA0004001002070B50E4B0E4C1E7C054606EBF2
:104FB000460304EBC304204603F020F800220A4B0A
:104FC00028469A55FFF7D0FF48B1084B2046BDE868
:104FD00070401A680649013AD31700F085B870BDD1
:104FE000501E0020800300205E2100205800002079
:104FF000494F000038B5EFF31185202383F3128861
:10500000BFF36F8F104B114A9C681068A04206D105
:10501000FFF7C8FF85F31188BFF36F8F38BD0021FC
:105020001B7C11600A4AD35C002BF3D02046FFF7AB
:105030009BFF0028EED0637BDB0602D12046FFF702
:10504000E7FC2046E4E700BF501E0020741E00204D
:105050005E210020074808B5074A0849121A02F0E5
:1050600098FEBDE808400648064A0749121A02F0B1
:1050700090BE00BF00000020200100209C8F000097
:1050800000000020000000209C8F0000024B1868E8
:10509000984208BF002070475C000020034B1B684B
:1050A0000BB9FEF74FBA0020704700BF7C1E0020EE
:1050B00030B570B10B4B5B6898420AD0036843B1BE
:1050C000D3E90421D0E90445121941EB0501C3E9F4
:1050D0000421D0E9003213605A600023C0E9003394
:1050E00030BD00BF5C000020B3F1FF3F08BFB2F14C
:1050F000FF3F2DE9F84F0446994615461F467BD0E1
:105100008160EFF31188202383F31288BFF36F8F40
:10511000013279F1FF33DFF8ECA020DBFFF7BEFFAF
:10512000DAE90027013549F100092D1849EBE07350
:1051300006464FF00109C4E90453AD1843EB0707D5
:10514000FFF7A4FF0346DFF8C0E0DEF804A0EBB9E8
:10515000C4E900EACAF80040CEF8044028E06FF045
:105160000103DAE900125B1A4FF0FF3161EB020232
:105170005B1B62EB0902012B72F10001BCBF012332
:1051800000224FF00009C0E90432D9E7D3E9041C3A
:10519000D4E904208A4270EB0C0B24DA891A5A688D
:1051A0006CEB0000C3E90410C4E9003214605C60D9
:1051B000FFF76CFF84420ED1114B1B685BB9B9F14C
:1051C000000F02D1FFF76AFF0646304602F0FFFEED
:1051D0000021FEF789F988F31188BFF36F8F284605
:1051E0003946BDE8F88F521A60EB0C009A45C4E9C5
:1051F0000420ADD01B68AAE700252F46EFE700BFCB
:105200007C1E0020980300205C0000202DE9F04760
:10521000EFF31185202383F31288BFF36F8F254F9F
:105220004FF0000838604FF00009FFF72FFF224EC3
:105230003B68D6E9001E4FEAE37C50B1D0E9044256
:10524000A3427CEB020A19DAE41A62EB0C02C0E911
:10525000044200245B184EEB0C022046C6E90032E3
:105260003C6002F0B4FE2146FEF73EF985F311885A
:10527000BFF36F8FBDE8F047FFF7BCBE61184EEB80
:10528000E473C0E90489C6E90013FFF711FF85F351
:105290001188BFF36F8F83689847EFF31185202340
:1052A00083F31288BFF36F8F3B681B1B3B60FFF7D4
:1052B000EDFEBDE77C1E00209803002010B5EFF343
:1052C0001184202383F31288BFF36F8FFFF7E6FE6C
:1052D0000346054AD2E90001181841EBE37184F353
:1052E0001188BFF36F8F10BD9803002010B50A4CD2
:1052F00023681BB101232360002010BD00F0EAF8F1
:105300000028F7D00138062803D8044B53F82000B2
:1053100010BD034810BD00BF801E00206486000041
:10532000FE8FFFFFBFF34F8F0549064BCA6802F49B
:10533000E0621343CB60BFF34F8F00BFFDE700BFB8
:1053400000ED00E00400FA0530B44FF0FE32002515
:10535000074B084C08494968C3F80024C3F80424E3
:10536000C3F80824C3F80C24C4F8005530BC08471F
:10537000001084500000845064000020024BD0E9EB
:105380000012C3E9001270476400002010B5044603
:1053900050B1636813F0685F05D0064A934202D0AB
:1053A00000236260236010BD034B04485B6898478C
:1053B000EFE700BF2C5F5CA964000020808600003E
:1053C000C8B143680D4A934213D013F0685F0ED002
:1053D000012350E8002F194640E8001C9CF0000F04
:1053E000F7D1012AF5D0BFF35F8F00207047044842
:1053F0007047044870476FF4E04070472C5F5CA929
:10540000E98FFFFFEA8FFFFF034680B14268094939
:105410008A420AD012F0685F05D0BFF35F8F002286
:1054200010461A60704704487047044870476FF48C
:10543000E04070472C5F5CA9E98FFFFFEA8FFFFF18
:1054400010B5044620B10023034A2360626010BDFA
:105450000248FFF779FFF6E73A00003AA886000015
:105460002DE9F041174C4768066867608768C06897
:10547000A760E06026600868134B144D1860486808
:10548000D5F818215860886812F0685F9860C8687D
:105490000969D860196112D000230D4A05F58A7098
:1054A000C5F81431C5F8B831C5F81821C5F8BC21C4
:1054B000B047236805F5DC70BDE8F0411847BDE84A
:1054C000F08100BF800000206C000020981E0020AA
:1054D0002C5F5CA938B500F02FF820B1032400F050
:1054E00063F8204638BD00F031F898B900F0ACF808
:1054F00098B90F4DD5F828391B0EF02B08D1D5F8E7
:10550000242A0C4B9A420AD0072400F017F8E6E749
:105510000624FAE70424204638BD0024F5E70120DC
:1055200000F092F804460028F7D1C5F80C0AD8E735
:10553000001084500000E0200020704700207047D9
:10554000014BC3F8040A70470010845010B511488D
:1055500000F048F800B110BD0F4800F043F80028F3
:10556000F9D10E4C204600F03DF80028F3D10C4B49
:105570000C481C6000F036F801460028EBD100F022
:105580002DF8044608B1204610BD00F03FF8204633
:10559000FAE700BFC0000020BC000020B8000020D7
:1055A000B0000020B400002008B5084800F024F83E
:1055B000074800F021F8074800F01EF8064800F000
:1055C0001BF8BDE8084000F00BB800BFC000002089
:1055D000BC000020B8000020B4000020002070476C
:1055E000704700BF08B5034B02681B6810689847F6
:1055F000002008BD8000002008B5034B02685B68EE
:1056000010689847002008BD8000002070B5094C44
:10561000094D2069AB68984718B1084B08485B688A
:1056200098470021074AEB6811602069BDE8704087
:10563000184700BF6C00002080000020640000209C
:10564000CC860000941E0020F8B51A4D1A4E044670
:10565000B26828699047E8B9184F3B684CB1A3B1CC
:10566000012B19D0013B3B602869F3689847002063
:10567000F8BD43B90121124AC2F800151149D1F809
:105680001029002AFBD101333B60F3682869984751
:105690000020F8BD0C48F8BD0A4AD2F81039002B9A
:1056A000FBD1074A6FF07E40C2F80035FFF748FF94
:1056B0003B68D7E76C00002080000020941E00208B
:1056C0000000845000108450E98FFFFF30B1026861
:1056D000034B04489A4208BF0020704702487047B5
:1056E000DD55AABB8208F0007108F00038B50D4600
:1056F0000446B0B1A0220021043002F0C4FC95B1F0
:105700000822294604F1640002F0C3FC082205F1D6
:10571000200104F1840002F0BCFC0020034B236054
:1057200038BD0348FCE70348FAE700BFDD55AABBD4
:105730007108F0008308F0002DE9F74305460E4696
:1057400099461146FFF7C2FF0446002840F08480C6
:10575000002E00F08580002900F08480B9F1200F30
:1057600040F0828005F14404082205F10408204637
:1057700002F08FFC05F1240708223146404602F072
:1057800088FC06F120010822384602F082FC02A9BA
:1057900041F8049D4FF4807002F06FFC002865D141
:1057A0004FF48073324A0121136093600823314A19
:1057B00000F034FB0121052308462F4A00F02EFBA0
:1057C0000823424601211C2000F028FB08233A460A
:1057D0000121032000F022FB2246082301210220A0
:1057E00000F01CFB0823254A01211A2000F016FBBB
:1057F0000523234A01211B2000F010FB0823214A26
:105800000121142000F00AFB08231F4A0121152062
:1058100000F004FB082305F164020121162000F0CA
:10582000FDFA082305F184020121172000F0F6FAA1
:105830000823164A01210B2000F0F0FA00F04AFB81
:105840000446019800F0D8FA114B002C18BF1C46F2
:10585000A421284602F019FC204603B0BDE8F083DD
:105860000C4CF9E70C4CF7E70C4CF5E7084CEFE76C
:10587000901084502C870000A4870000EC86000064
:105880009087000050870000708700000C870000A0
:105890008408F0007608F0008008F0008108F0002D
:1058A000C2690C4B1A60826943F8042C426943F8C0
:1058B000082C026943F80C2CC26843F8102C82684B
:1058C00043F8142C426843F8182C026843F81C2C47
:1058D000704700BF5C1684500C4B1B68C3610C4BB7
:1058E0001B6883610B4B1B6843610B4B1B68036197
:1058F0000A4B1B68C3600A4B1B688360094B1B681B
:105900004360094B1B680360704700BF5C168450FE
:105910005816845054168450501684504C16845097
:1059200048168450441684504016845030B10268A2
:10593000034B04489A4208BF002070470248704752
:10594000DD55AABB0202F0000002F00038B50446A3
:1059500068B1051D7021284602F097FB28462022D9
:10596000044902F08EFB0020034B236038BD03483E
:10597000FCE700BFB8870000DD55AABB0002F000BD
:105980002DE9F04385B015466F46274B04460E4679
:105990000FCB87E80F002DB94FF00009484605B03E
:1059A000BDE8F0832046FFF7C1FF81460028F5D10E
:1059B000231D0193636AA3BB236F8BB1C3F140081E
:1059C000A84528BFA84604F1300031461844424695
:1059D00002F057FB236F464443442367A5EB0805B9
:1059E000226F402A06D104F13001384600F0B4FBA2
:1059F0000023236705F03F0835F03F0505D0314609
:105A00002A46384600F0A8FB2E44B8F1000FC3D058
:105A10004246314604F1300002F033FBC4F8708096
:105A2000BCE7DFF80890B9E7208400000C02F00022
:105A30002DE9FF4104466F46134B0E460FCB87E816
:105A40000F002046FFF772FF8046B0B9CEB1636AFF
:105A5000251D01953BB90123226F636204F13001DA
:105A6000384600F079FB2B46043E243453F8042BCF
:105A700012BAA34246F8042FF8D1404604B0BDE85C
:105A8000F081DFF80880F8E7208400000502F000CC
:105A9000084B1B681B0EF02B08D1074B1A68074BED
:105AA0009A4205D10020064B1860704705207047C8
:105AB0000620704728198450241A84500000E020E2
:105AC0000C1A8450002230B5134640F6FC7549008C
:105AD000023802F1A15404F5823490424FEA840462
